:060000000A128A110C280F
:10000800FE00030EF1000A08F2000A128A111428F1
:100018000A128A110F28F30183010A128A113E2855
:100028000B1C172818282A2883120313061C1D28BE
:100038001E2823280130F0007008F3072928861CA1
:100048002628272829280130F3020B100B1D2D28FC
:100058002E2837289E308312031381000130F000C8
:10006800700887070B1172088A00710E8300FE0E54
:100078007E0E09000A128A1155200A128A110A12E4
:100088008A1179200A128A110A128A116C200A121E
:100098008A1173088312031385004D280A128A11E6
:1000A8000C28831603178801890183160313850119
:1000B80087010330860083120313850187018601B7
:1000C800831603130F088F3940388F000F14080068
:1000D80083160313811281110115811401140B1168
:1000E8009E308312031381000800A8308B00033070
:0800F8008316031396000800B3
:08400000FF3FFF3FFF3FFF3FC0
:04400E00D420FF3F7C
:00000001FF
